{
  "contractName": "Job",
  "abi": [
    {
      "inputs": [],
      "payable": false,
      "stateMutability": "nonpayable",
      "type": "constructor"
    },
    {
      "anonymous": false,
      "inputs": [
        {
          "indexed": false,
          "internalType": "address",
          "name": "_from",
          "type": "address"
        },
        {
          "indexed": false,
          "internalType": "string",
          "name": "description",
          "type": "string"
        },
        {
          "indexed": false,
          "internalType": "address",
          "name": "_to",
          "type": "address"
        }
      ],
      "name": "LogNewAlert",
      "type": "event"
    },
    {
      "constant": true,
      "inputs": [
        {
          "internalType": "address",
          "name": "",
          "type": "address"
        }
      ],
      "name": "status",
      "outputs": [
        {
          "internalType": "enum Job.JobStatus",
          "name": "_status",
          "type": "uint8"
        },
        {
          "internalType": "address",
          "name": "_id",
          "type": "address"
        }
      ],
      "payable": false,
      "stateMutability": "view",
      "type": "function"
    },
    {
      "constant": false,
      "inputs": [
        {
          "internalType": "address",
          "name": "_to",
          "type": "address"
        }
      ],
      "name": "Applying",
      "outputs": [],
      "payable": false,
      "stateMutability": "nonpayable",
      "type": "function"
    },
    {
      "constant": false,
      "inputs": [
        {
          "internalType": "address",
          "name": "_to",
          "type": "address"
        }
      ],
      "name": "Working",
      "outputs": [],
      "payable": false,
      "stateMutability": "nonpayable",
      "type": "function"
    },
    {
      "constant": false,
      "inputs": [
        {
          "internalType": "address",
          "name": "_to",
          "type": "address"
        }
      ],
      "name": "Quitting",
      "outputs": [],
      "payable": false,
      "stateMutability": "nonpayable",
      "type": "function"
    },
    {
      "constant": false,
      "inputs": [
        {
          "internalType": "address",
          "name": "_to",
          "type": "address"
        }
      ],
      "name": "Free",
      "outputs": [],
      "payable": false,
      "stateMutability": "nonpayable",
      "type": "function"
    },
    {
      "constant": true,
      "inputs": [],
      "name": "Status",
      "outputs": [
        {
          "internalType": "string",
          "name": "",
          "type": "string"
        }
      ],
      "payable": false,
      "stateMutability": "view",
      "type": "function"
    }
  ],
  "bytecode": "0x608060405234801561001057600080fd5b5033600080600160009054906101000a900473ffffffffffffffffffffffffffffffffffffffff1673ffffffffffffffffffffffffffffffffffffffff1673ffffffffffffffffffffffffffffffffffffffff16815260200190815260200160002060000160016101000a81548173ffffffffffffffffffffffffffffffffffffffff021916908373ffffffffffffffffffffffffffffffffffffffff1602179055506000806000600160009054906101000a900473ffffffffffffffffffffffffffffffffffffffff1673ffffffffffffffffffffffffffffffffffffffff1673ffffffffffffffffffffffffffffffffffffffff16815260200190815260200160002060000160006101000a81548160ff0219169083600381111561013357fe5b021790555033600160006101000a81548173ffffffffffffffffffffffffffffffffffffffff021916908373ffffffffffffffffffffffffffffffffffffffff1602179055506110cb806101886000396000f3fe608060405234801561001057600080fd5b50600436106100625760003560e01c806345f09ce9146100675780634804d767146100ea578063543286a61461012e578063645b8b1b146101725780636d5dbd661461020b5780638c3edaff1461024f575b600080fd5b61006f610293565b6040518080602001828103825283818151815260200191508051906020019080838360005b838110156100af578082015181840152602081019050610094565b50505050905090810190601f1680156100dc5780820380516001836020036101000a031916815260200191505b509250505060405180910390f35b61012c6004803603602081101561010057600080fd5b81019080803573ffffffffffffffffffffffffffffffffffffffff169060200190929190505050610319565b005b6101706004803603602081101561014457600080fd5b81019080803573ffffffffffffffffffffffffffffffffffffffff16906020019092919050505061060e565b005b6101b46004803603602081101561018857600080fd5b81019080803573ffffffffffffffffffffffffffffffffffffffff169060200190929190505050610926565b604051808360038111156101c457fe5b60ff1681526020018273ffffffffffffffffffffffffffffffffffffffff1673ffffffffffffffffffffffffffffffffffffffff1681526020019250505060405180910390f35b61024d6004803603602081101561022157600080fd5b81019080803573ffffffffffffffffffffffffffffffffffffffff169060200190929190505050610977565b005b6102916004803603602081101561026557600080fd5b81019080803573ffffffffffffffffffffffffffffffffffffffff169060200190929190505050610c4b565b005b60606000806000600160009054906101000a900473ffffffffffffffffffffffffffffffffffffffff1673ffffffffffffffffffffffffffffffffffffffff1673ffffffffffffffffffffffffffffffffffffffff16815260200190815260200160002060000160009054906101000a900460ff16905061031381610f1f565b91505090565b60038081111561032557fe5b600080600160009054906101000a900473ffffffffffffffffffffffffffffffffffffffff1673ffffffffffffffffffffffffffffffffffffffff1673ffffffffffffffffffffffffffffffffffffffff16815260200190815260200160002060000160009054906101000a900460ff1660038111156103a157fe5b14610414576040517f08c379a00000000000000000000000000000000000000000000000000000000081526004018080602001828103825260198152602001807f506c65617365207265717565737420717569742066697273740000000000000081525060200191505060405180910390fd5b6000806000600160009054906101000a900473ffffffffffffffffffffffffffffffffffffffff1673ffffffffffffffffffffffffffffffffffffffff1673ffffffffffffffffffffffffffffffffffffffff16815260200190815260200160002060000160006101000a81548160ff0219169083600381111561049457fe5b021790555033600080600160009054906101000a900473ffffffffffffffffffffffffffffffffffffffff1673ffffffffffffffffffffffffffffffffffffffff1673ffffffffffffffffffffffffffffffffffffffff16815260200190815260200160002060000160016101000a81548173ffffffffffffffffffffffffffffffffffffffff021916908373ffffffffffffffffffffffffffffffffffffffff1602179055507ffdcc1d3065d36bdcf453fd875183c4f1bae9a4542a4e2ccddafb25aa123a17468133604051808373ffffffffffffffffffffffffffffffffffffffff1673ffffffffffffffffffffffffffffffffffffffff168152602001806020018373ffffffffffffffffffffffffffffffffffffffff1673ffffffffffffffffffffffffffffffffffffffff168152602001828103825260088152602001807f4c656674696e6720000000000000000000000000000000000000000000000000815250602001935050505060405180910390a150565b6002600381111561061b57fe5b600080600160009054906101000a900473ffffffffffffffffffffffffffffffffffffffff1673ffffffffffffffffffffffffffffffffffffffff1673ffffffffffffffffffffffffffffffffffffffff16815260200190815260200160002060000160009054906101000a900460ff16600381111561069757fe5b1461070a576040517f08c379a00000000000000000000000000000000000000000000000000000000081526004018080602001828103825260128152602001807f506c65617365206170706c79206669727374000000000000000000000000000081525060200191505060405180910390fd5b6001600080600160009054906101000a900473ffffffffffffffffffffffffffffffffffffffff1673ffffffffffffffffffffffffffffffffffffffff1673ffffffffffffffffffffffffffffffffffffffff16815260200190815260200160002060000160006101000a81548160ff0219169083600381111561078a57fe5b0217905550600160009054906101000a900473ffffffffffffffffffffffffffffffffffffffff16600080600160009054906101000a900473ffffffffffffffffffffffffffffffffffffffff1673ffffffffffffffffffffffffffffffffffffffff1673ffffffffffffffffffffffffffffffffffffffff16815260200190815260200160002060000160016101000a81548173ffffffffffffffffffffffffffffffffffffffff021916908373ffffffffffffffffffffffffffffffffffffffff1602179055507ffdcc1d3065d36bdcf453fd875183c4f1bae9a4542a4e2ccddafb25aa123a17468133604051808373ffffffffffffffffffffffffffffffffffffffff1673ffffffffffffffffffffffffffffffffffffffff168152602001806020018373ffffffffffffffffffffffffffffffffffffffff1673ffffffffffffffffffffffffffffffffffffffff168152602001828103825260108152602001807f6e6f7720776f726b696e6720666f722000000000000000000000000000000000815250602001935050505060405180910390a150565b60006020528060005260406000206000915090508060000160009054906101000a900460ff16908060000160019054906101000a900473ffffffffffffffffffffffffffffffffffffffff16905082565b6001600381111561098457fe5b6000803373ffffffffffffffffffffffffffffffffffffffff1673ffffffffffffffffffffffffffffffffffffffff16815260200190815260200160002060000160009054906101000a900460ff1660038111156109de57fe5b14610a51576040517f08c379a00000000000000000000000000000000000000000000000000000000081526004018080602001828103825260168152602001807f596f75277265206e6f7420776f726b696e67206e6f770000000000000000000081525060200191505060405180910390fd5b6003600080600160009054906101000a900473ffffffffffffffffffffffffffffffffffffffff1673ffffffffffffffffffffffffffffffffffffffff1673ffffffffffffffffffffffffffffffffffffffff16815260200190815260200160002060000160006101000a81548160ff02191690836003811115610ad157fe5b021790555033600080600160009054906101000a900473ffffffffffffffffffffffffffffffffffffffff1673ffffffffffffffffffffffffffffffffffffffff1673ffffffffffffffffffffffffffffffffffffffff16815260200190815260200160002060000160016101000a81548173ffffffffffffffffffffffffffffffffffffffff021916908373ffffffffffffffffffffffffffffffffffffffff1602179055507ffdcc1d3065d36bdcf453fd875183c4f1bae9a4542a4e2ccddafb25aa123a17463382604051808373ffffffffffffffffffffffffffffffffffffffff1673ffffffffffffffffffffffffffffffffffffffff168152602001806020018373ffffffffffffffffffffffffffffffffffffffff1673ffffffffffffffffffffffffffffffffffffffff168152602001828103825260088152602001807f4c656674696e6720000000000000000000000000000000000000000000000000815250602001935050505060405180910390a150565b60006003811115610c5857fe5b6000803373ffffffffffffffffffffffffffffffffffffffff1673ffffffffffffffffffffffffffffffffffffffff16815260200190815260200160002060000160009054906101000a900460ff166003811115610cb257fe5b14610d25576040517f08c379a00000000000000000000000000000000000000000000000000000000081526004018080602001828103825260108152602001807f596f7520617265206e6f7420667265650000000000000000000000000000000081525060200191505060405180910390fd5b6002600080600160009054906101000a900473ffffffffffffffffffffffffffffffffffffffff1673ffffffffffffffffffffffffffffffffffffffff1673ffffffffffffffffffffffffffffffffffffffff16815260200190815260200160002060000160006101000a81548160ff02191690836003811115610da557fe5b021790555033600080600160009054906101000a900473ffffffffffffffffffffffffffffffffffffffff1673ffffffffffffffffffffffffffffffffffffffff1673ffffffffffffffffffffffffffffffffffffffff16815260200190815260200160002060000160016101000a81548173ffffffffffffffffffffffffffffffffffffffff021916908373ffffffffffffffffffffffffffffffffffffffff1602179055507ffdcc1d3065d36bdcf453fd875183c4f1bae9a4542a4e2ccddafb25aa123a17463382604051808373ffffffffffffffffffffffffffffffffffffffff1673ffffffffffffffffffffffffffffffffffffffff168152602001806020018373ffffffffffffffffffffffffffffffffffffffff1673ffffffffffffffffffffffffffffffffffffffff1681526020018281038252600d8152602001807f4170706c79696e6720666f722000000000000000000000000000000000000000815250602001935050505060405180910390a150565b6060816003811115610f2d57fe5b60006003811115610f3a57fe5b1415610f7d576040518060400160405280600481526020017f46726565000000000000000000000000000000000000000000000000000000008152509050611091565b816003811115610f8957fe5b60026003811115610f9657fe5b1415610fd9576040518060400160405280600881526020017f4170706c79696e670000000000000000000000000000000000000000000000008152509050611091565b816003811115610fe557fe5b60016003811115610ff257fe5b1415611035576040518060400160405280600781526020017f576f726b696e67000000000000000000000000000000000000000000000000008152509050611091565b81600381111561104157fe5b60038081111561104d57fe5b1415611090576040518060400160405280600881526020017f5175697474696e670000000000000000000000000000000000000000000000008152509050611091565b5b91905056fea265627a7a72315820c6c82055a9415b3c55b7df5d6160015669191bd2acdf86093fbea18d151f092a64736f6c63430005100032",
  "source": "// SPDX-License-Identifier: MIT\npragma solidity >=0.4.21 <8.10.0;\n\ncontract Job {\n\n    enum JobStatus {Free, Working, Applying, Quitting}\n\n    struct ID{\n        Job.JobStatus _status;\n        address _id;\n    }\n    \n    mapping (address => ID) public status;\n    address owner;\n     \n\n    event LogNewAlert(address _from, string description, address _to);\n\n    constructor() public {\n        \n        status[owner]._id = msg.sender; \n\n        status[owner]._status = JobStatus.Free;\n        \n        owner = msg.sender; // Thiếu cái này sẽ không thay đổi trạng thái khi search thông tin của người ta \n    }\n\n    function Applying(address _to) public {\n        require (status[msg.sender]._status == JobStatus.Free, \"You are not free\");\n        status[owner]._status = JobStatus.Applying;\n        status[owner]._id = msg.sender ;\n        emit LogNewAlert(msg.sender, \"Applying for \", _to);\n    }\n\n\n    function Working(address _to) public {\n        require (status[owner]._status == JobStatus.Applying, \"Please apply first\");\n        status[owner]._status = JobStatus.Working;\n        status[owner]._id = owner;\n        // status[owner]._id = msg.sender ;\n        emit LogNewAlert(_to, \"now working for \", msg.sender);\n    }\n\n    \n    function Quitting(address _to) public {\n        require (status[msg.sender]._status == JobStatus.Working, \"You're not working now\");\n        status[owner]._status = JobStatus.Quitting;\n        status[owner]._id = msg.sender ;\n        emit LogNewAlert(msg.sender, \"Lefting \", _to);\n    }\n\n\n\n    function Free(address _to) public {\n        require (status[owner]._status == JobStatus.Quitting, \"Please request quit first\");\n        status[owner]._status = JobStatus.Free;\n        status[owner]._id = msg.sender;\n        emit LogNewAlert(_to, \"Lefting \", msg.sender);\n    }\n\n\n\n    function getStatus(JobStatus _JobStatus) internal pure returns (string memory){\n        if(JobStatus.Free == _JobStatus) return \"Free\";\n        if(JobStatus.Applying == _JobStatus) return \"Applying\";\n        if(JobStatus.Working == _JobStatus) return \"Working\";\n        if(JobStatus.Quitting == _JobStatus) return \"Quitting\";\n        \n    }\n\n\n    function Status() public view returns (string memory){\n        JobStatus _JobStatus = status[owner]._status;\n        return getStatus(_JobStatus);\n    }\n\n}\n",
  "sourcePath": "C:\\Users\\thinh\\Desktop\\Become An Ethereum Blockchain Developer\\Truffle Unbox React\\contracts\\Job.sol",
  "compiler": {
    "name": "solc",
    "version": "0.5.16+commit.9c3226ce.Emscripten.clang"
  },
  "schemaVersion": "3.4.7",
  "updatedAt": "2022-04-23T09:23:07.834Z",
  "networkType": "ethereum",
  "devdoc": {
    "methods": {}
  },
  "userdoc": {
    "methods": {}
  }
}